:020000040000FA
:040000005AEF00F0C3
:020004000000FA
:040008006DEF00F0A8
:080018001100210E926EE30EAF
:10002000936EC00E946E8B908B92956A000E8C6EC0
:10003000C2800E0EC16E080EC06E12003F0E006E22
:10004000060E016E5B0E026E4F0E036E660E046EA0
:100050006D0E056E3D0E066E070E076E3F0E086EA6
:10006000CF0E096E0D0E0C6E1200240EAC6E900EAB
:10007000AB6E080EB86E040EB06E100EAF6E1200AE
:10008000D08EE00EF26EF1841200910ED56E120049
:10009000A69EA69C000EA96E0CC0A8FFA684F29E88
:1000A000550EA76EAA0EA76EA68277EC00F0F28E10
:1000B000A69412001EEC00F00DEC00F035EC00F000
:1000C00040EC00F048EC00F045EC00F072EC00F081
:1000D0009EBA89EF00F068EF00F0F29472EC00F045
:1000E000898411003C0ED76EB00ED66E1200A6B2F7
:1000F00077EF00F01200ACA27BEF00F012009EAA96
:100100007FEF00F0AE500A6E0AC0ADFF7BEC00F04E
:100110001200AE500A6E0AC0ADFF7BEC00F00D0E6F
:10012000AD6E7BEC00F08C6A8B908B92410E0A6274
:100130009CEF00F0C8EF00F0440E0A62A2EF00F05E
:10014000CCEF00F0490E0A62A8EF00F0D0EF00F00B
:100150004D0E0A62AEEF00F001EF01F0520E0A629E
:10016000B4EF00F008EF01F0530E0A62BAEF00F0AE
:100170005AEF01F0540E0A62C0EF00F05EEF01F09A
:10018000550E0A62C6EF00F062EF01F068EF00F072
:1001900007C08CFF68EF00F003C08CFF68EF00F031
:1001A00000C08CFF000E0B6E7FEC00F00B50A96EB0
:1001B0000A50A86EA684F29E550EA76EAA0EA76ED0
:1001C000A68277EC00F0F28EA6940D0E0A62EBEF99
:1001D00000F0FFEF00F00B2A780E0B62D4EF00F076
:1001E0000B50A96E0D0EA86EA684F29E550EA76E3A
:1001F000AA0EA76EA68277EC00F0F28EA69468EFA6
:1002000000F002C08CFF9EBA89EF00F001EF01F010
:1002100001C08CFF4E0EAD6E7BEC00F06F0EAD6E2C
:100220007BEC00F06D0EAD6E7BEC00F03A0EAD6E27
:100230007BEC00F0200EAD6E7BEC00F0000E0B6E40
:100240007BEC00F00BC0A9FFA69EA69CA680A8CFC1
:100250000DF00DC0ADFF7BEC00F00D0E0D6233EF25
:1002600001F036EF01F00B2A20EF01F04D0EAD6EDC
:100270007BEC00F0650EAD6E7BEC00F0730EAD6EA6
:100280007BEC00F0750EAD6E7BEC00F0720EAD6E87
:10029000650EAD6E7BEC00F0730EAD6E7BEC00F086
:1002A0003A0EAD6E7BEC00F00D0EAD6E7BEC00F007
:1002B00068EF00F004C08CFF68EF00F005C08CFF11
:0A02C00068EF00F08B8268EF00F099
:020000040030CA
:0100010006F8
:010003001EDE
:010005008179
:010006008178
:00000001FF
