:020000040000FA
:0400000058EF00F0C5
:020004000000FA
:0400080077EF00F09E
:080018001100230E926E899481
:100020008998E70E936EF19EC00E946E8B908B9222
:10003000956A8C6A12003F0E006E060E016E5B0E12
:10004000026E4F0E036E660E046E6D0E056E3D0E53
:10005000066E070E076E3F0E086ECF0E096E0D0E70
:100060000C6E196AE96AC80E1C6E1F6A206A216A42
:10007000246A236A276A1200240EAC6E900EAB6EBF
:10008000080EB86E040EB06E100EAF6E1200D08E59
:10009000E00EF26EF1841200910ED56E1200A69E53
:1000A000A69C12000E0EC06E0E0EC16EC280120013
:1000B0001BEC00F00DEC00F03CEC00F047EC00F025
:1000C0004FEC00F04CEC00F09AEC00F052EC00F039
:1000D00081B072EF00F0CAEC01F0CAEC01F081A02F
:1000E00004EF03F09EBA3EEF01F068EF00F0F294E7
:1000F0009AEC00F08984FA0E1D6E060E1E6E1E2EFE
:100100007FEF00F01D2E7DEF00F0000E196495EFDB
:1001100000F019C01EF0140E1D6E000000001D2E10
:100120008DEF00F01E2E8BEF00F0899420B0BBEC19
:1001300000F011003C0ED76EB00ED66E12000E50BD
:10014000A96EA69EA69CA680A8CF0FF012000E5006
:10015000A96E0F50A86EA684F29E550EA76EAA0E29
:10016000A76EA682B7EC00F0F28EA6941200A6B29B
:10017000B7EF00F01200E80E106E8988102AD8A0A0
:10018000BEEF00F0000000000000899880AAC6EFD2
:1001900000F0126A3C0E116E113ECCEF00F0122AF4
:1001A00080BACAEF00F0120612C013F0E6EC00F0BD
:1001B0000AEC01F01CEC01F012C0EEFF1C2EE5EF82
:1001C00000F0E96AC80E1C6E1F681200146A156AF6
:1001D000166A000E136403EF01F0142A0A0E14606D
:1001E000F4EF00F0FEEF00F0146A152A0A0E156015
:1001F000FCEF00F0FEEF00F0156A162A134E03EF35
:1002000001F0E9EF00F0300E1426300E1526300E06
:100210001626120016C0ADFF27EC01F015C0ADFF89
:1002200027EC01F014C0ADFF27EC01F01200C282F0
:10023000C2B218EF01F01200630EAD6E27EC01F0B0
:100240006D0EAD6E27EC01F035EC01F01200ACA2A2
:1002500027EF01F012009EAA2BEF01F0AE500A6EBC
:100260000AC0ADFF27EC01F012000A0EAD6E27ECBC
:1002700001F00D0EAD6E27EC01F01200AE500A6ECB
:100280000AC0ADFF27EC01F035EC01F0410E0A6227
:100290004CEF01F07EEF01F0440E0A6252EF01F0E4
:1002A00097EF01F0490E0A6258EF01F0D3EF01F029
:1002B0004D0E0A625EEF01F0F0EF01F0520E0A629D
:1002C00064EF01F012EF02F0530E0A626AEF01F0E0
:1002D000AEEF02F0540E0A6270EF01F0DFEF02F0B1
:1002E000550E0A6276EF01F0F1EF02F04E0E0A624F
:1002F0007CEF01F011EF03F068EF00F007C08CFF16
:10030000000E216491EF01F0010E216491EF01F0E4
:1003100020A08EEF01F0206A68EF00F0206868EFFF
:1003200000F08B808B82020E216E68EF00F003C01C
:100330008CFF81B2AFEF01F0CAEC01F0CAEC01F022
:1003400081B2AFEF01F0AF0E1960AFEF01F0192AE3
:10035000192A192A192A192A81A2ACEF01F081B4AD
:10036000C5EF01F0CAEC01F0CAEC01F081B4C5EFB1
:1003700001F0040E1964C5EF01F0190619061906FB
:100380001906190681A4C2EF01F09EBA3EEF01F0F2
:1003900097EF01F01A681B681B2ECCEF01F01A2EA4
:1003A000CBEF01F0120000C08CFF000E0E6E2BECA4
:1003B00001F00AC00FF0A7EC00F00D0E0A62E3EFA7
:1003C00001F0E8EF01F00E2A780E0E62D7EF01F08F
:1003D00035EC01F00D0E0F6EA7EC00F068EF00F0A9
:1003E00002C08CFFC80E1C62F9EF01F01FA007EFDE
:1003F00002F0EDCF17F0EECF13F0E6EC00F00AECD0
:1004000001F01CEC01F035EC01F00DEF02F02D0EC7
:10041000AD6E27EC01F035EC01F09EBA3EEF01F035
:1004200068EF00F001C08CFF4E0EAD6E27EC01F0BE
:100430006F0EAD6E27EC01F06D0EAD6E27EC01F086
:100440003A0EAD6E27EC01F0200EAD6E27EC01F0F8
:10045000000E0E6E9FEC00F00FC0ADFF27EC01F018
:100460000D0E0F623AEF02F00A0EAD6E27EC01F0AE
:100470003DEF02F00E2A2AEF02F04D0EAD6E27EC92
:1004800001F0650EAD6E27EC01F0730EAD6E27EC3A
:1004900001F0750EAD6E27EC01F0720EAD6E650EBB
:1004A000AD6E27EC01F0730EAD6E27EC01F03A0E45
:1004B000AD6E27EC01F035EC01F01FB07CEF02F0DF
:1004C000C80E1C60A6EF02F0E9CF26F0EACF25F0B7
:1004D00026C017F0E96AEECF13F0E6EC00F00AEC64
:1004E00001F01CEC01F0172E6BEF02F026C0E9FFC3
:1004F00025C0EAFF68EF00F0540EAD6E27EC01F066
:100500004F0EAD6E27EC01F0540EAD6E27EC01F0EE
:100510003A0EAD6E27EC01F035EC01F0E9CF26F094
:10052000EACF25F0C80E176EE96AEECF13F0E6ECBD
:1005300000F00AEC01F01CEC01F0172E95EF02F030
:1005400026C0E9FF25C0EAFF68EF00F02D0EAD6E72
:1005500027EC01F035EC01F068EF00F004C08CFFEF
:1005600017EC01F0FA0EC464C5EF02F0AF0E19608B
:10057000C5EF02F0192A192A192A192A192A17EC83
:1005800001F0880EC460BFEF02F017EC01F0050E19
:10059000C460DAEF02F0040E1964DAEF02F0190613
:1005A000190619061906190617EC01F0740EC46431
:1005B000D4EF02F09EBA3EEF01F0AEEF02F005C0BC
:1005C0008CFF17EC01F0000EC464ECEF02F0010F99
:1005D000D8B0ECEF02F0192A9EBA3EEF01F0DFEF3F
:1005E00002F0020E2160FDEF02F0010E2162FDEF2C
:1005F00002F0BBEC00F068EF00F08B808B92010EF4
:10060000216E206A68EF00F081A004EF03F0020E73
:1006100021607EEF01F0000E216468EF00F0F1EF41
:1006200002F0236A196A34EC03F034EC03F0BBECFB
:1006300000F0192A34EC03F01250236444EC03F068
:10064000B30E196217EF03F035EC01F023C013F07D
:10065000E6EC00F00AEC01F01CEC01F035EC01F0E6
:1006600024C019F068EF00F00A0E1A6EFF0E176E24
:10067000FF0E186E182E3AEF03F0172E38EF03F026
:100680001A2E36EF03F0120019C024F012C023F026
:02069000120056
:020000040030CA
:0100010006F8
:010003001EDE
:010005008179
:010006008178
:00000001FF
