:020000040000FA
:040000003FEF00F0DE
:020004000000FA
:040008003EEF00F0D7
:080018001100210E926EC30ECF
:10002000936EC00E946E8B908B92956A000E8C6EC0
:10003000C2800E0EC16E080EC06E12003F0E006E22
:10004000060E016E5B0E026E4F0E036E660E046EA0
:100050006D0E056E3D0E066E070E076E3F0E086EA6
:10006000CF0E096E1200240EAC6E900EAB6E080E11
:10007000B86E040EB06E100EAF6E120011000DECD3
:1000800000F033EC00F01EEC00F09EBA4AEF00F0F6
:1000900045EF00F0AE50106E10C0ADFFACA24EEFB9
:1000A00000F0440E106257EF00F06BEF00F0490EC5
:1000B00010625DEF00F072EF00F04D0E106263EF22
:1000C00000F079EF00F0520E106269EF00F080EF5F
:1000D00000F045EF00F003C08CFF9EBA4AEF00F03D
:1000E0006BEF00F000C08CFF9EBA4AEF00F072EF99
:1000F00000F002C08CFF9EBA4AEF00F079EF00F0EA
:0E01000001C08CFF9EBA4AEF00F080EF00F0C5
:020000040030CA
:0100010006F8
:010003001EDE
:010005008179
:010006008178
:00000001FF
