:020000040000FA
:0400000056EF00F0C7
:020004000000FA
:0400080075EF00F0A0
:080018001100230E926E899481
:100020008998E70E936EF19EC00E946E8B908B9222
:10003000956A8C6A12003F0E006E060E016E5B0E12
:10004000026E4F0E036E660E046E6D0E056E3D0E53
:10005000066E070E076E3F0E086ECF0E096E0D0E70
:100060000C6E196AE16AE26AC80E1C6E1F6A206A89
:10007000216A1200240EAC6E900EAB6E080EB86EA4
:10008000040EB06E100EAF6E1200D08EE00EF26E47
:10009000F1841200910ED56E1200A69EA69C12004D
:1000A0000E0EC06E0E0EC16EC28012001BEC00F070
:1000B0000DEC00F03AEC00F045EC00F04DEC00F0F7
:1000C0004AEC00F098EC00F050EC00F081B070EFDA
:1000D00000F0C8EC01F0C8EC01F081A0CFEF02F015
:1000E0009EBA46EF01F066EF00F0F29498EC00F053
:1000F0008984FA0E1D6E060E1E6E1E2E7DEF00F018
:100100001D2E7BEF00F0000E196493EF00F019C074
:100110001EF0140E1D6E000000001D2E8BEF00F06F
:100120001E2E89EF00F0899420B0B9EC00F0110088
:100130003C0ED76EB00ED66E12000E50A96EA69E63
:10014000A69CA680A8CF0FF012000E50A96E0F50EB
:10015000A86EA684F29E550EA76EAA0EA76EA68262
:10016000B5EC00F0F28EA6941200A6B2B5EF00F046
:100170001200E80E106E8988102AD8A0BCEF00F09B
:10018000000000000000899880AAC4EF00F0126A05
:100190003C0E116E113ECAEF00F0122A80BAC8EF71
:1001A00000F0120612C0E4FF1C2E1200E16AE26A9F
:1001B000C80E1C6E1F681200146A156A166A000EBB
:1001C0001364F9EF00F0142A0A0E1460EAEF00F04D
:1001D000F4EF00F0146A152A0A0E1560F2EF00F031
:1001E000F4EF00F0156A162A134EF9EF00F0DFEF76
:1001F00000F0300E1426300E1526300E1626120092
:1002000016C0ADFF2FEC01F015C0ADFF2FEC01F0D3
:1002100014C0ADFF2FEC01F01200C282C2B20EEF8B
:1002200001F0C4CF13F0DCEC00F000EC01F02D0E77
:10023000AD6E2FEC01F0C3CF13F0DCEC00F000EC5E
:1002400001F03DEC01F01200630EAD6E2FEC01F0F9
:100250006D0EAD6E2FEC01F03DEC01F01200ACA282
:100260002FEF01F012009EAA33EF01F0AE500A6E9C
:100270000AC0ADFF2FEC01F012000A0EAD6E2FEC9C
:1002800001F00D0EAD6E2FEC01F01200AE500A6EB3
:100290000AC0ADFF2FEC01F03DEC01F0410E0A6207
:1002A00054EF01F080EF01F0440E0A625AEF01F0C2
:1002B00095EF01F0490E0A6260EF01F0D1EF01F015
:1002C0004D0E0A6266EF01F0EEEF01F0520E0A6287
:1002D0006CEF01F00EEF02F0530E0A6272EF01F0C4
:1002E000B0EF02F0540E0A6278EF01F0B6EF02F0C0
:1002F000550E0A627EEF01F0BAEF02F066EF00F0F1
:1003000007C08CFF21A08DEF01F020A090EF01F03D
:100310008B908B92206A66EF00F0216866EF00F008
:100320008B808B82206866EF00F003C08CFF81B267
:10033000ADEF01F0C8EC01F0C8EC01F081B2ADEF17
:1003400001F0AF0E1960ADEF01F0192A192A192A30
:10035000192A192A81A2AAEF01F081B4C3EF01F092
:10036000C8EC01F0C8EC01F081B4C3EF01F0040E59
:100370001964C3EF01F019061906190619061906C2
:1003800081A4C0EF01F09EBA46EF01F095EF01F0B5
:100390001A681B681B2ECAEF01F01A2EC9EF01F074
:1003A000120000C08CFF000E0E6E33EC01F00AC08C
:1003B0000FF0A5EC00F00D0E0A62E1EF01F0E6EFA0
:1003C00001F00E2A780E0E62D5EF01F03DEC01F03F
:1003D0000D0E0F6EA5EC00F066EF00F002C08CFF72
:1003E000C80E1C62F7EF01F01FA003EF02F0E7CF89
:1003F00013F0DCEC00F000EC01F024EC01F03DEC3B
:1004000001F009EF02F02D0EAD6E2FEC01F03DEC86
:1004100001F09EBA46EF01F066EF00F001C08CFFDC
:100420004E0EAD6E2FEC01F06F0EAD6E2FEC01F0A5
:100430006D0EAD6E2FEC01F03A0EAD6E2FEC01F0AB
:10044000200EAD6E2FEC01F0000E0E6E9DEC00F054
:100450000FC0ADFF2FEC01F00D0E0F6236EF02F072
:100460000A0EAD6E2FEC01F039EF02F00E2A26EFE6
:1004700002F04D0EAD6E2FEC01F0650EAD6E2FEC5F
:1004800001F0730EAD6E2FEC01F0750EAD6E2FEC1A
:1004900001F0720EAD6E650EAD6E2FEC01F0730EB5
:1004A000AD6E2FEC01F03A0EAD6E2FEC01F03DEC8D
:1004B00001F0C80E1C608AEF02F0E2CF18F0E1CF25
:1004C0001AF0E5CF13F0DCEC00F000EC01F024ECC6
:1004D00001F0000EE16261EF02F01FA018C0E2FF20
:1004E0001AC0E1FF66EF00F0000EE26EC80EE16E8A
:1004F000E5CF13F0DCEC00F000EC01F024EC01F0AF
:100500001A50E16278EF02F018C0E2FF1AC0E1FF72
:1005100066EF00F01FA0A8EF02F0E2CF18F0E1CFE5
:100520001AF0000EE26EC80EE16EC80E176EE5CF2F
:1005300013F0DCEC00F000EC01F024EC01F0172EDD
:1005400097EF02F018C0E2FF1AC0E1FF66EF00F07B
:100550002D0EAD6E2FEC01F03DEC01F066EF00F0DA
:1005600004C08CFF0DEC01F066EF00F005C08CFFBD
:1005700066EF00F021B0CCEF02F08B80B9EC00F018
:1005800012C013F0DCEC00F000EC01F024EC01F000
:100590008B908B9266EF00F0216A88EF01F081A0CA
:0E05A000CFEF02F021A0BAEF02F080EF01F0E1
:020000040030CA
:0100010006F8
:010003001EDE
:010005008179
:010006008178
:00000001FF
