:020000040000FA
:040000005AEF00F0C3
:020004000000FA
:040008006DEF00F0A8
:080018001100210E926EE30EAF
:10002000936EC00E946E8B908B92956A000E8C6EC0
:10003000C2800E0EC16E080EC06E12003F0E006E22
:10004000060E016E5B0E026E4F0E036E660E046EA0
:100050006D0E056E3D0E066E070E076E3F0E086EA6
:10006000CF0E096E0D0E0C6E1200240EAC6E900EAB
:10007000AB6E080EB86E040EB06E100EAF6E1200AE
:10008000D08EE00EF26EF1841200910ED56E120049
:10009000A69EA69C000EA96E0CC0A8FFA684F29E88
:1000A000550EA76EAA0EA76EA6828FEC00F0F28EF8
:1000B000A69412001EEC00F00DEC00F035EC00F000
:1000C00040EC00F048EC00F045EC00F072EC00F081
:1000D0009EBAAAEF00F068EF00F0F29472EC00F024
:1000E000898411003C0ED76EB00ED66E12000E50F1
:1000F000A96EA69EA69CA680A8CF0FF012000E5057
:10010000A96E0F50A86EA684F29E550EA76EAA0E79
:10011000A76EA6828FEC00F0F28EA6941200A6B213
:100120008FEF00F01200ACA293EF00F012009EAA35
:1001300097EF00F0AE500A6E0AC0ADFF93EC00F0EE
:1001400012000A0EAD6E93EC00F00D0EAD6E93EC46
:1001500000F01200AE500A6E0AC0ADFF93EC00F042
:10016000A1EC00F08C6A8B908B92410E0A62BBEF7F
:1001700000F0E7EF00F0440E0A62C1EF00F0EBEF91
:1001800000F0490E0A62C7EF00F0EFEF00F04D0EED
:100190000A62CDEF00F00CEF01F0520E0A62D3EFCD
:1001A00000F013EF01F0530E0A62D9EF00F060EF98
:1001B00001F0540E0A62DFEF00F064EF01F0550E1B
:1001C0000A62E5EF00F068EF01F068EF00F007C0A9
:1001D0008CFF68EF00F003C08CFF68EF00F000C0F8
:1001E0008CFF000E0E6E97EC00F00AC00FF07FEC53
:1001F00000F00D0E0A62FFEF00F004EF01F00E2A8E
:10020000780E0E62F3EF00F0A1EC00F00D0E0F6E11
:100210007FEC00F068EF00F002C08CFF9EBAAAEFFE
:1002200000F00CEF01F001C08CFF4E0EAD6E93ECB0
:1002300000F06F0EAD6E93EC00F06D0EAD6E93ECB2
:1002400000F03A0EAD6E93EC00F0200EAD6E93EC24
:1002500000F0000E0E6E77EC00F00FC0ADFF93ECD7
:1002600000F00D0E0F623BEF01F00A0EAD6E93EC45
:1002700000F03EEF01F00E2A2BEF01F04D0EAD6EB7
:1002800093EC00F0650EAD6E93EC00F0730EAD6E66
:1002900093EC00F0750EAD6E93EC00F0720EAD6E47
:1002A000650EAD6E93EC00F0730EAD6E93EC00F046
:1002B0003A0EAD6E93EC00F0A1EC00F068EF00F0A8
:1002C00004C08CFF68EF00F005C08CFF68EF00F001
:0602D0008B8268EF00F0D4
:020000040030CA
:0100010006F8
:010003001EDE
:010005008179
:010006008178
:00000001FF
