:020000040000FA
:040000005BEF00F0C2
:020004000000FA
:040008006EEF00F0A7
:080018001100210E926EE30EAF
:10002000936EC00E946E8B908B92956A000E8C6EC0
:10003000C2800E0EC16E080EC06E12003F0E006E22
:10004000060E016E5B0E026E4F0E036E660E046EA0
:100050006D0E056E3D0E066E070E076E3F0E086EA6
:10006000CF0E096E0D0E0C6E1200240EAC6E900EAB
:10007000AB6E080EB86E040EB06E100EAF6E1200AE
:10008000D08EE00EF26EF1841200910ED56E120049
:10009000A69EA69C000EA96E0CC0A8FFA684F29E88
:1000A000550EA76EAA0EA76EA682A6B255EF00F057
:1000B000F28EA69412001EEC00F00DEC00F035EC70
:1000C00000F040EC00F048EC00F045EC00F073EC80
:1000D00000F09EBA78EF00F069EF00F0F29473EC54
:1000E00000F0898411003C0ED76EB00ED66E12005F
:1000F000AE500A6E0AC0ADFFACA27CEF00F0440E19
:100100000A6285EF00F0A5EF00F0490E0A628BEF5E
:1001100000F0A9EF00F04D0E0A6291EF00F0E4EF5D
:1001200000F0520E0A6297EF00F0EBEF00F0530E72
:100130000A629DEF00F006EF01F0540E0A62A3EF91
:1001400000F00AEF01F069EF00F003C08CFF69EFE7
:1001500000F000C08CFF000E0B6E9EAAADEF00F009
:10016000AE500A6E0B50A96E0A50A86EA684F29E7D
:10017000550EA76EAA0EA76EA682A6B2BDEF00F01E
:10018000F28EA6940D0E0A62C8EF00F0E2EF00F0C6
:100190000AC0ADFFACA2CAEF00F00B2A780E0B62CA
:1001A000ADEF00F00B50A96E0D0EA86EA684F29E66
:1001B000550EA76EAA0EA76EA682A6B2DDEF00F0BE
:1001C000F28EA69469EF00F002C08CFF9EBA78EF21
:1001D00000F0E4EF00F001C08CFF000E0B6E0BC0CE
:1001E000A9FFA69EA69CA680A8CF0DF00DC0AEFFCD
:1001F000ACA2F8EF00F00D520C6201EF01F004EF39
:1002000001F00B2AEFEF00F069EF00F004C08CFF63
:0C02100069EF00F005C08CFF69EF00F002
:020000040030CA
:0100010006F8
:010003001EDE
:010005008179
:010006008178
:00000001FF
