:020000040000FA
:0400000057EF00F0C6
:020004000000FA
:040008006CEF00F0A9
:080018001100230E926E899481
:100020008998E70E936EF19EC00E946E8B908B9222
:10003000956A000E8C6E12003F0E006E060E016E69
:100040005B0E026E4F0E036E660E046E6D0E056E35
:100050003D0E066E070E076E3F0E086ECF0E096E40
:100060000D0E0C6E010EE26E000EE16EC80E186EE3
:10007000196A1E6A1200240EAC6E900EAB6E080E4A
:10008000B86E040EB06E100EAF6E1200D08EE00E81
:10009000F26EF1841200910ED56E1200A69EA69CFF
:1000A00012000E0EC06E0E0EC16EC28012001CEC4D
:1000B00000F00DEC00F03BEC00F046EC00F04EECF4
:1000C00000F04BEC00F08CEC00F051EC00F09EBA2C
:1000D00034EF01F067EF00F0F2948CEC00F08984CB
:1000E000FA0E1C6E050E1D6E1D2E74EF00F01C2EF8
:1000F00072EF00F0000E1E648AEF00F01EC01DF0CB
:10010000140E1C6E000000001C2E82EF00F01D2E4D
:1001100080EF00F0899411003C0ED76EB00ED66EC1
:1001200012000E50A96EA69EA69CA680A8CF0FF026
:1001300012000E50A96E0F50A86EA684F29E550EA6
:10014000A76EAA0EA76EA682AEEC00F0F28EA69461
:1001500012001FEEE6F017C0E7FF1200A6B2AEEFE6
:1001600000F01200E80E106E8988102AD8A0B5EFB2
:1001700000F0000000000000899880AABDEF00F0A8
:10018000126A3C0E116E113EC3EF00F0122A80BAC3
:10019000C1EF00F0120612C017F0A9EC00F0182E03
:1001A0001200C80E186E19681200146A156A166AD1
:1001B000000E1364F2EF00F0142A0A0E1460E3EF4D
:1001C00000F0EDEF00F0146A152A0A0E1560EBEF4F
:1001D00000F0EDEF00F0156A162A134EF2EF00F072
:1001E000D8EF00F0300E1426300E1526300E1626ED
:1001F000120016C0ADFF1DEC01F015C0ADFF1DECE7
:1002000001F014C0ADFF1DEC01F01200C282C2B2B9
:1002100007EF01F0C4CF13F0D5EC00F0F9EC00F0DB
:100220002D0EAD6E1DEC01F0C3CF13F0D5EC00F038
:10023000F9EC00F02BEC01F01200ACA21DEF01F084
:1002400012009EAA21EF01F0AE500A6E0AC0ADFF67
:100250001DEC01F012000A0EAD6E1DEC01F00D0E4A
:10026000AD6E1DEC01F01200AE500A6E0AC0ADFF7B
:100270001DEC01F02BEC01F08C6A8B908B92410EFF
:100280000A6245EF01F071EF01F0440E0A624BEF94
:1002900001F079EF01F0490E0A6251EF01F0A0EF91
:1002A00001F04D0E0A6257EF01F0BDEF01F0520E62
:1002B0000A625DEF01F0C4EF01F0530E0A6263EFD2
:1002C00001F028EF02F0540E0A6269EF01F02EEF00
:1002D00002F0550E0A626FEF01F032EF02F067EFA5
:1002E00000F007C08CFF8B808B828B908B9267EF26
:1002F00000F081B289EF01F0B00E1E6089EF01F0CD
:100300008B721E2A1E2A1E2A1E2A1E2A81A286EFF0
:1003100001F081B499EF01F0040E1E6499EF01F031
:100320008B701E061E061E061E061E0681A496EF74
:1003300001F01EC08CFF9EBA34EF01F079EF01F09E
:1003400000C08CFF000E0E6E21EC01F00AC00FF011
:1003500099EC00F00D0E0A62B0EF01F0B5EF01F07C
:100360000E2A780E0E62A4EF01F02BEC01F00D0EB8
:100370000F6E99EC00F067EF00F002C08CFF9EBAA0
:1003800034EF01F0BDEF01F001C08CFF4E0EAD6EF9
:100390001DEC01F06F0EAD6E1DEC01F06D0EAD6E3B
:1003A0001DEC01F03A0EAD6E1DEC01F0200EAD6EAD
:1003B0001DEC01F0000E0E6E91EC00F00FC0ADFFD1
:1003C0001DEC01F00D0E0F62ECEF01F00A0EAD6EA8
:1003D0001DEC01F0EFEF01F00E2ADCEF01F04D0E05
:1003E000AD6E1DEC01F0650EAD6E1DEC01F0730EEF
:1003F000AD6E1DEC01F0750EAD6E1DEC01F0720ED0
:10040000AD6E650EAD6E1DEC01F0730EAD6E1DECA4
:1004100001F03A0EAD6E1DEC01F02BEC01F0E2CFD5
:100420001AF0E1CF1BF0000EE16E010EE26EC80E75
:100430001C6E10EE01F0E6CF13F0D5EC00F0F9ECF5
:1004400000F02BEC01F01C2E19EF02F067EF00F02A
:1004500004C08CFF06EC01F067EF00F005C08CFFD4
:1004600067EF00F08B80B2EC00F012C013F0D5EC17
:1004700000F0F9EC00F0630EAD6E1DEC01F06D0EB6
:10048000AD6E1DEC01F02BEC01F08B9067EF00F0EE
:020000040030CA
:0100010006F8
:010003001EDE
:010005008179
:010006008178
:00000001FF
