:020000040000FA
:0400000054EF00F0C9
:020004000000FA
:0400080067EF00F0AE
:080018001100230E926E899481
:100020008998E60E936EF19EC00E946E8B908B9223
:10003000956A000E8C6EC2800E0EC16E080EC06EE8
:1000400012003F0E006E060E016E5B0E026E4F0E2A
:10005000036E660E046E6D0E056E3D0E066E070E87
:10006000076E3F0E086ECF0E096E0D0E0C6E12005D
:10007000240EAC6E900EAB6E080EB86E040EB06E11
:10008000100EAF6E1200D08EE00EF26EF1841200F0
:10009000910ED56E1200A69EA69C12000E0EC06E8A
:1000A0000E0EC16EC26A120021EC00F00DEC00F0E1
:1000B00038EC00F043EC00F04BEC00F048EC00F0C2
:1000C0006CEC00F09EBAC8EF00F062EF00F0F29422
:1000D0006CEC00F0898411003C0ED76EB00ED66E29
:1000E00012000E50A96EA69EA69CA680A8CF0FF067
:1000F00012000E50A96E0F50A86EA684F29E550EE7
:10010000A76EAA0EA76EA68289EC00F0F28EA694C6
:100110001200A6B289EF00F0E80E106E8988102A4E
:10012000D8A08FEF00F0000000000000899880AA9E
:1001300097EF00F0146A400E136E133E9DEF00F02F
:10014000142A8C7480BA9BEF00F014C08CFF12004C
:10015000C282C2B2A9EF00F0C4CF8CFFB1EF00F0B1
:100160001200ACA2B1EF00F012009EAAB5EF00F0B1
:10017000AE500A6E0AC0ADFFB1EC00F012000A0EDC
:10018000AD6EB1EC00F00D0EAD6EB1EC00F01200F2
:10019000AE500A6E0AC0ADFFB1EC00F0BFEC00F04B
:1001A0008C6A8B908B92410E0A62D9EF00F007EFB8
:1001B00001F0440E0A62DFEF00F00BEF01F0490E90
:1001C0000A62E5EF00F016EF01F04D0E0A62EBEF68
:1001D00000F033EF01F0520E0A62F1EF00F03AEF57
:1001E00001F0530E0A62F7EF00F087EF01F0540EB2
:1001F0000A62FDEF00F08DEF01F0550E0A6203EF89
:1002000001F091EF01F08CEC00F062EF00F007C01C
:100210008CFF62EF00F003C08CFF81B412EF01F09D
:10022000B40E0B6281A28B7262EF00F000C08CFFF3
:10023000000E0E6EB5EC00F00AC00FF079EC00F085
:100240000D0E0A6226EF01F02BEF01F00E2A780E58
:100250000E621AEF01F0BFEC00F00D0E0F6E79EC9C
:1002600000F062EF00F002C08CFF9EBAC8EF00F011
:1002700033EF01F001C08CFF4E0EAD6EB1EC00F01B
:100280006F0EAD6EB1EC00F06D0EAD6EB1EC00F026
:100290003A0EAD6EB1EC00F0200EAD6EB1EC00F098
:1002A000000E0E6E71EC00F00FC0ADFFB1EC00F06F
:1002B0000D0E0F6262EF01F00A0EAD6EB1EC00F0B0
:1002C00065EF01F00E2A52EF01F04D0EAD6EB1EC6C
:1002D00000F0650EAD6EB1EC00F0730EAD6EB1ECDA
:1002E00000F0750EAD6EB1EC00F0720EAD6E650EE5
:1002F000AD6EB1EC00F0730EAD6EB1EC00F03A0EE5
:10030000AD6EB1EC00F0BFEC00F062EF00F004C0A5
:100310008CFFA8EC00F062EF00F005C08CFF62EFEC
:0A03200000F08CEC00F062EF00F03A
:020000040030CA
:0100010006F8
:010003001EDE
:010005008179
:010006008178
:00000001FF
