:020000040000FA
:0400000054EF00F0C9
:020004000000FA
:0400080069EF00F0AC
:080018001100230E926E899481
:100020008998E60E936EF19EC00E946E8B908B9223
:10003000956A000E8C6EC2800E0EC16E080EC06EE8
:1000400012003F0E006E060E016E5B0E026E4F0E2A
:10005000036E660E046E6D0E056E3D0E066E070E87
:10006000076E3F0E086ECF0E096E0D0E0C6E12005D
:10007000240EAC6E900EAB6E080EB86E040EB06E11
:10008000100EAF6E1200D08EE00EF26EF1841200F0
:10009000910ED56E1200A69EA69C12000E0EC06E8A
:1000A0000E0EC16EC26A120021EC00F00DEC00F0E1
:1000B00038EC00F043EC00F04BEC00F048EC00F0C2
:1000C0006EEC00F04EEC00F09EBACAEF00F064EF68
:1000D00000F0F2946EEC00F0898411003C0ED76EB3
:1000E000B00ED66E12000E50A96EA69EA69CA680DB
:1000F000A8CF0FF012000E50A96E0F50A86EA68464
:10010000F29E550EA76EAA0EA76EA6828BEC00F08B
:10011000F28EA6941200A6B28BEF00F01200E80E49
:10012000106E8988102AD8A092EF00F0000000001D
:1001300000008998116A126A136A80A89DEF00F086
:10014000630E136E134EA7EC00F0A2EF00F0142A1A
:10015000136A80B8A0EF00F0C282C2B2ADEF00F027
:10016000C4CF8CFF1200ACA2B3EF00F012009EAA25
:10017000B7EF00F0AE500A6E0AC0ADFFB3EC00F06E
:1001800012000A0EAD6EB3EC00F00D0EAD6EB3ECC6
:1001900000F01200AE500A6E0AC0ADFFB3EC00F0E2
:1001A000C1EC00F08C6A8B908B92410E0A62DBEFFF
:1001B00000F009EF01F0440E0A62E1EF00F00DEFEC
:1001C00001F0490E0A62E7EF00F018EF01F04D0E62
:1001D0000A62EDEF00F035EF01F0520E0A62F3EF24
:1001E00000F03CEF01F0530E0A62F9EF00F089EFE6
:1001F00001F0540E0A62FFEF00F08FEF01F0550E90
:100200000A6205EF01F093EF01F08FEC00F064EF6C
:1002100000F007C08CFF64EF00F003C08CFF81B4D6
:1002200014EF01F0B40E0B6281A28B7264EF00F048
:1002300000C08CFF000E0E6EB7EC00F00AC00FF08D
:100240007BEC00F00D0E0A6228EF01F02DEF01F0BB
:100250000E2A780E0E621CEF01F0C1EC00F00D0EBC
:100260000F6E7BEC00F064EF00F002C08CFF9EBAD2
:10027000CAEF00F035EF01F001C08CFF4E0EAD6EFD
:10028000B3EC00F06F0EAD6EB3EC00F06D0EAD6E22
:10029000B3EC00F03A0EAD6EB3EC00F0200EAD6E94
:1002A000B3EC00F0000E0E6E73EC00F00FC0ADFF6B
:1002B000B3EC00F00D0E0F6264EF01F00A0EAD6EAC
:1002C000B3EC00F067EF01F00E2A54EF01F04D0E91
:1002D000AD6EB3EC00F0650EAD6EB3EC00F0730ED6
:1002E000AD6EB3EC00F0750EAD6EB3EC00F0720EB7
:1002F000AD6E650EAD6EB3EC00F0730EAD6EB3EC8B
:1003000000F03A0EAD6EB3EC00F0C1EC00F064EF1B
:1003100000F004C08CFFACEC00F064EF00F005C00E
:0E0320008CFF64EF00F08FEC00F064EF00F053
:020000040030CA
:0100010006F8
:010003001EDE
:010005008179
:010006008178
:00000001FF
