:020000040000FA
:040000003FEF00F0DE
:020004000000FA
:040008003EEF00F0D7
:080018001100210E926EC30ECF
:10002000936EC00E946E8B908B92956A000E8C6EC0
:10003000C2800E0EC16E080EC06E12003F0E006E22
:10004000060E016E5B0E026E4F0E036E660E046EA0
:100050006D0E056E3D0E066E070E076E3F0E086EA6
:10006000CF0E096E1200240EAC6E900EAB6E080E11
:10007000B86E040EB06E100EAF6E120011000DECD3
:1000800000F033EC00F01EEC00F09EBA4AEC00F0F9
:1000900045EF00F0AE50106E10C0ADFFACA24EEFB9
:1000A00000F0446256EF00F066EF00F049625BEF4B
:1000B00000F06AEF00F04D6260EF00F06DEF00F0CD
:1000C000526265EF00F070EF00F0120003C08CFF89
:1000D0008B68120000508C6E120002508C6E120061
:0600E00001508C6E1200BD
:020000040030CA
:0100010006F8
:010003001EDE
:010005008179
:010006008178
:00000001FF
