:020000040000FA
:0400000058EF00F0C5
:020004000000FA
:0400080077EF00F09E
:080018001100230E926E899481
:100020008998E70E936EF19EC00E946E8B908B9222
:10003000956A8C6A12003F0E006E060E016E5B0E12
:10004000026E4F0E036E660E046E6D0E056E3D0E53
:10005000066E070E076E3F0E086ECF0E096E0D0E70
:100060000C6E196AE96AC80E1C6E1F6A206A216A42
:10007000246A236A276A1200240EAC6E900EAB6EBF
:10008000080EB86E040EB06E100EAF6E1200D08E59
:10009000E00EF26EF1841200910ED56E1200A69E53
:1000A000A69C12000E0EC06E0E0EC16EC280120013
:1000B0001BEC00F00DEC00F03CEC00F047EC00F025
:1000C0004FEC00F04CEC00F09AEC00F052EC00F039
:1000D00081B072EF00F0CBEC01F0CBEC01F081A02D
:1000E000FDEF02F09EBA3FEF01F068EF00F0F294EE
:1000F0009AEC00F08984FA0E1D6E060E1E6E1E2EFE
:100100007FEF00F01D2E7DEF00F0000E196495EFDB
:1001100000F019C01EF0140E1D6E000000001D2E10
:100120008DEF00F01E2E8BEF00F0899420B0BBEC19
:1001300000F011003C0ED76EB00ED66E12000E50BD
:10014000A96EA69EA69CA680A8CF0FF012000E5006
:10015000A96E0F50A86EA684F29E550EA76EAA0E29
:10016000A76EA682B7EC00F0F28EA6941200A6B29B
:10017000B7EF00F01200E80E106E8988102AD8A0A0
:10018000BEEF00F0000000000000899880AAC6EFD2
:1001900000F0126A3C0E116E113ECCEF00F0122AF4
:1001A00080BACAEF00F0120612C013F0E7EC00F0BC
:1001B0000BEC01F01DEC01F012C0EEFF1C2EE6EF7F
:1001C00000F0E96AEA6AC80E1C6E1F681200146A21
:1001D000156A166A000E136404EF01F0142A0A0E61
:1001E0001460F5EF00F0FFEF00F0146A152A0A0E14
:1001F0001560FDEF00F0FFEF00F0156A162A134EB0
:1002000004EF01F0EAEF00F0300E1426300E152650
:10021000300E1626120016C0ADFF28EC01F015C0F6
:10022000ADFF28EC01F014C0ADFF28EC01F0120086
:10023000C282C2B219EF01F01200630EAD6E28EC5B
:1002400001F06D0EAD6E28EC01F036EC01F01200FD
:10025000ACA228EF01F012009EAA2CEF01F0AE50E4
:100260000A6E0AC0ADFF28EC01F012000A0EAD6E56
:1002700028EC01F00D0EAD6E28EC01F01200AE502E
:100280000A6E0AC0ADFF28EC01F036EC01F0410E19
:100290000A624DEF01F07FEF01F0440E0A6253EF66
:1002A00001F098EF01F0490E0A6259EF01F0D4EF26
:1002B00001F04D0E0A625FEF01F0F1EF01F0520E16
:1002C0000A6265EF01F013EF02F0530E0A626BEF62
:1002D00001F09DEF02F0540E0A6271EF01F0CEEFD3
:1002E00002F0550E0A6277EF01F0EAEF02F04E0ECF
:1002F0000A627DEF01F00AEF03F068EF00F007C03B
:100300008CFF000E216492EF01F0010E216492EF48
:1003100001F020A08FEF01F0206A68EF00F0206864
:1003200068EF00F08B808B82020E216E68EF00F088
:1003300003C08CFF81B2B0EF01F0CBEC01F0CBEC4D
:1003400001F081B2B0EF01F0AF0E1960B0EF01F033
:10035000192A192A192A192A192A81A2ADEF01F09E
:1003600081B4C6EF01F0CBEC01F0CBEC01F081B42D
:10037000C6EF01F0040E1964C6EF01F01906190664
:1003800019061906190681A4C3EF01F09EBA3FEFC2
:1003900001F098EF01F01A681B681B2ECDEF01F0F9
:1003A0001A2ECCEF01F0120000C08CFF000E0E6E72
:1003B0002CEC01F00AC00FF0A7EC00F00D0E0A6261
:1003C000E4EF01F0E9EF01F00E2A780E0E62D8EFAB
:1003D00001F036EC01F00D0E0F6EA7EC00F068EFA7
:1003E00000F002C08CFFC80E1C62FAEF01F01FA0E3
:1003F00008EF02F0E5CF17F0E6CF13F0E7EC00F0DE
:100400000BEC01F01DEC01F036EC01F00EEF02F008
:100410002D0EAD6E28EC01F036EC01F09EBA3FEFE8
:1004200001F068EF00F001C08CFF4E0EAD6E28ECBD
:1004300001F06F0EAD6E28EC01F06D0EAD6E28EC84
:1004400001F03A0EAD6E28EC01F0200EAD6E28ECF6
:1004500001F0000E0E6E9FEC00F00FC0ADFF28EC17
:1004600001F00D0E0F623BEF02F00A0EAD6E28ECAC
:1004700001F03EEF02F00E2A2BEF02F04D0EAD6EB2
:1004800028EC01F0650EAD6E28EC01F0730EAD6E38
:1004900028EC01F0750EAD6E28EC01F0720EAD6E19
:1004A000650EAD6E28EC01F0730EAD6E28EC01F018
:1004B0003A0EAD6E28EC01F036EC01F01FB07DEF86
:1004C00002F0C80E1C6095EF02F0E9CF26F0EACFEB
:1004D00025F026C017F0E96AEECF13F0E7EC00F044
:1004E0000BEC01F01DEC01F0172E6CEF02F026C0B2
:1004F000E9FF25C0EAFF68EF00F0E9CF26F0EACF78
:1005000025F0E96AC80E276EEECF13F0E7EC00F095
:100510000BEC01F01DEC01F0272E84EF02F026C059
:10052000E9FF25C0EAFF68EF00F02D0EAD6E28EC64
:1005300001F036EC01F068EF00F004C08CFF18EC1D
:1005400001F0FA0EC464B4EF02F0AF0E1960B4EF1C
:1005500002F0192A192A192A192A192A18EC01F065
:10056000880EC460AEEF02F018EC01F0050EC46016
:10057000C9EF02F0040E1964C9EF02F0190619065A
:1005800019061906190618EC01F0740EC464C3EFBD
:1005900002F09EBA3FEF01F09DEF02F005C08CFF24
:1005A00018EC01F05A0EC460DAEF02F0C4CF19F073
:1005B000E5EF02F0A00EC464E3EF02F0550EC45C58
:1005C000196EE5EF02F04B0E196E9EBA3FEF01F087
:1005D000CEEF02F0020E2160F6EF02F0010E216272
:1005E000F6EF02F0BBEC00F068EF00F08B808B922E
:1005F000010E216E206A68EF00F081A0FDEF02F08D
:10060000020E21607FEF01F0000E216468EF00F020
:10061000EAEF02F0236A196A2DEC03F02DEC03F0E7
:10062000BBEC00F0192A2DEC03F0125023643DECD2
:1006300003F0B30E196210EF03F036EC01F023C0A3
:1006400013F0E7EC00F00BEC01F01DEC01F036ECE0
:1006500001F024C019F068EF00F00A0E1A6EFF0EC8
:10066000176EFF0E186E182E33EF03F0172E31EFB2
:1006700003F01A2E2FEF03F0120019C024F012C05D
:0406800023F0120051
:020000040030CA
:0100010006F8
:010003001EDE
:010005008179
:010006008178
:00000001FF
