:020000040000FA
:0400000059EF00F0C4
:020004000000FA
:0400080078EF00F09D
:080018001100230E926E899481
:100020008998E70E936EF19EC00E946E8B908B9222
:10003000956A8C6A12003F0E006E060E016E5B0E12
:10004000026E4F0E036E660E046E6D0E056E3D0E53
:10005000066E070E076E3F0E086ECF0E096E0D0E70
:100060000C6E196AE96AC80E1C6E1F6A206A216A42
:10007000246A236A276A286A1200240EAC6E900E46
:10008000AB6E080EB86E040EB06E100EAF6E12009E
:10009000D08EE00EF26EF1841200910ED56E120039
:1000A000A69EA69C12000E0EC06E0E0EC16EC280E1
:1000B00012001BEC00F00DEC00F03DEC00F048EC01
:1000C00000F050EC00F04DEC00F09BEC00F053EC35
:1000D00000F081B073EF00F0DDEC01F0DDEC01F039
:1000E00081A033EF03F09EBA44EF01F069EF00F016
:1000F000F2949BEC00F08984FA0E1D6E060E1E6EC3
:100100001E2E80EF00F01D2E7EEF00F0000E196411
:1001100096EF00F019C01EF0140E1D6E00000000D6
:100120001D2E8EEF00F01E2E8CEF00F0899420B073
:10013000BCEC00F011003C0ED76EB00ED66E120073
:100140000E50A96EA69EA69CA680A8CF0FF0120006
:100150000E50A96E0F50A86EA684F29E550EA76E83
:10016000AA0EA76EA682B8EC00F0F28EA69412003A
:10017000A6B2B8EF00F01200E80E106E8988102ABF
:10018000D8A0BFEF00F0000000000000899880AA0E
:10019000C7EF00F0126A3C0E116E113ECDEF00F079
:1001A000122A80BACBEF00F0120612C013F0E7EC6F
:1001B00000F00BEC01F022EC01F012C0EEFF1C2E5F
:1001C000E6EF00F0E96AC80E1C6E1F681200146AA0
:1001D000156A166A000E136404EF01F0142A0A0E61
:1001E0001460F5EF00F0FFEF00F0146A152A0A0E14
:1001F0001560FDEF00F0FFEF00F0156A162A134EB0
:1002000004EF01F0EAEF00F0300E1426300E152650
:10021000300E1626120016C0ADFF2DEC01F015C0F1
:10022000ADFF2DEC01F014C0ADFF2DEC01F012007C
:10023000C282C2B219EF01F012009EBA44EF01F07F
:100240009DEF01F0630EAD6E2DEC01F06D0EAD6E05
:100250002DEC01F03BEC01F01200ACA22DEF01F00F
:1002600012009EAA31EF01F0AE500A6E0AC0ADFF37
:100270002DEC01F012000A0EAD6E2DEC01F00D0E0A
:10028000AD6E2DEC01F01200AE500A6E0AC0ADFF4B
:100290002DEC01F03BEC01F0410E0A6252EF01F04F
:1002A00084EF01F0440E0A6258EF01F09DEF01F077
:1002B000490E0A625EEF01F0E6EF01F04D0E0A62B0
:1002C00064EF01F004EF02F0520E0A626AEF01F0EF
:1002D00027EF02F0530E0A6270EF01F0C4EF02F054
:1002E000540E0A6276EF01F001EF03F0550E0A6238
:1002F0007CEF01F020EF03F04E0E0A6282EF01F076
:1003000040EF03F079EF03F007C08CFF000E21648B
:1003100097EF01F0010E216497EF01F020A094EF18
:1003200001F0206A79EF03F0206879EF03F08B8009
:100330008B82020E216E79EF03F003C08CFF286AD6
:1003400081B2B6EF01F0DDEC01F0DDEC01F081B23D
:10035000B6EF01F0AF0E1960B6EF01F0192A192AB5
:10036000192A192A192A81A2B3EF01F081B4CCEF1E
:1003700001F0DDEC01F0DDEC01F081B4CCEF01F037
:10038000040E1964CCEF01F01906190619061906B6
:10039000190681A4C9EF01F0800E286E9EBA44EFC1
:1003A00001F081B09DEF01F0DDEC01F0DDEC01F03A
:1003B00081A033EF03F09DEF01F01A681B681B2E3C
:1003C000DFEF01F01A2EDEEF01F01200286A00C004
:1003D0008CFF000E0E6E31EC01F00AC00FF0A8EC9D
:1003E00000F00D0E0A62F7EF01F0FCEF01F00E2AAB
:1003F000780E0E62EBEF01F03BEC01F00D0E0F6E8C
:10040000A8EC00F069EF00F0286A02C08CFFC80E6B
:100410001C620EEF02F01FA01CEF02F0EDCF17F0F0
:10042000EECF13F0E7EC00F00BEC01F022EC01F062
:100430003BEC01F022EF02F02D0EAD6E2DEC01F041
:100440003BEC01F09EBA44EF01F069EF00F0286A3E
:1004500001C08CFF4E0EAD6E2DEC01F06F0EAD6E37
:100460002DEC01F06D0EAD6E2DEC01F03A0EAD6E7F
:100470002DEC01F0200EAD6E2DEC01F0000E0E6E95
:10048000A0EC00F00FC0ADFF2DEC01F00D0E0F62DF
:1004900050EF02F00A0EAD6E2DEC01F053EF02F0BA
:1004A0000E2A40EF02F04D0EAD6E2DEC01F0650E00
:1004B000AD6E2DEC01F0730EAD6E2DEC01F0750EEE
:1004C000AD6E2DEC01F0720EAD6E650EAD6E2DECC5
:1004D00001F0730EAD6E2DEC01F03A0EAD6E2DEC09
:1004E00001F03BEC01F01FB092EF02F0C80E1C606F
:1004F000BCEF02F0E9CF26F0EACF25F026C017F0D6
:10050000E96AEECF13F0E7EC00F00BEC01F022EC1F
:1005100001F0172E81EF02F026C0E9FF25C0EAFFA7
:1005200069EF00F0540EAD6E2DEC01F04F0EAD6E84
:100530002DEC01F0540EAD6E2DEC01F03A0EAD6EC7
:100540002DEC01F03BEC01F0E9CF26F0EACF25F0ED
:10055000C80E176EE96AEECF13F0E7EC00F00BEC73
:1005600001F022EC01F0172EABEF02F026C0E9FFFC
:1005700025C0EAFF69EF00F02D0EAD6E2DEC01F005
:100580003BEC01F069EF00F004C08CFF18EC01F0C7
:10059000FA0EC464DBEF02F0AF0E1960DBEF02F07D
:1005A000192A192A192A192A192A18EC01F0880E71
:1005B000C460D5EF02F018EC01F0050EC460F0EF56
:1005C00002F0040E1964F0EF02F01906190619067C
:1005D0001906190618EC01F0740EC464EAEF02F073
:1005E000810E286E9EBA44EF01F081B0C4EF02F094
:1005F000DDEC01F0DDEC01F081A033EF03F0C4EF9E
:1006000002F005C08CFF18EC01F0000E176EC464F8
:100610000FEF03F0172AD8B00FEF03F0192A800E5E
:10062000286E9EBA44EF01F081B001EF03F0DDECDB
:1006300001F0DDEC01F081A033EF03F001EF03F0F6
:10064000020E21602CEF03F0010E21622CEF03F06B
:10065000BCEC00F079EF03F08B808B92010E216EE1
:10066000206A79EF03F081A033EF03F0020E2160DE
:1006700084EF01F0000E216469EF00F020EF03F039
:10068000289E236A196A64EC03F064EC03F0BCEC66
:1006900000F0192A64EC03F01250236474EC03F0A8
:1006A000B30E196247EF03F03BEC01F023C013F0E7
:1006B000E7EC00F00BEC01F022EC01F03BEC01F078
:1006C00024C019F069EF00F00A0E1A6EFF0E176EC3
:1006D000FF0E186E182E6AEF03F0172E68EF03F066
:1006E0001A2E66EF03F0120019C024F012C023F096
:1006F0001200800E286280EF03F0286A9DEF01F05F
:10070000810E286287EF03F0286AC4EF02F0820EA0
:1007100028628EEF03F0286A01EF03F069EF00F022
:020000040030CA
:0100010006F8
:010003001EDE
:010005008179
:010006008178
:00000001FF
