:020000040000FA
:040000004EEF00F0CF
:020004000000FA
:0400080061EF00F0B4
:080018001100230E926E899481
:100020008998E60E936EF19EC00E946E8B908B9223
:10003000956A000E8C6EC2800E0EC16E080EC06EE8
:1000400012003F0E006E060E016E5B0E026E4F0E2A
:10005000036E660E046E6D0E056E3D0E066E070E87
:10006000076E3F0E086ECF0E096E0D0E0C6E12005D
:10007000240EAC6E900EAB6E080EB86E040EB06E11
:10008000100EAF6E1200D08EE00EF26EF1841200F0
:10009000910ED56E1200A69EA69C120021EC00F0D7
:1000A0000DEC00F038EC00F043EC00F04BEC00F00D
:1000B00048EC00F066EC00F09EBABAEF00F05CEF9E
:1000C00000F0F29466EC00F0898411003C0ED76ECB
:1000D000B00ED66E12000E50A96EA69EA69CA680EB
:1000E000A8CF0FF012000E50A96E0F50A86EA68474
:1000F000F29E550EA76EAA0EA76EA68283EC00F0A4
:10010000F28EA6941200A6B283EF00F01200E80E61
:10011000106E8988102AD8A08AEF00F00000000035
:1001200000008998116A126A136A80A895EF00F09E
:100130001328010E13609FEC00F080B81200142AFF
:10014000136A8B701200ACA2A3EF00F012009EAAFB
:10015000A7EF00F0AE500A6E0AC0ADFFA3EC00F0AE
:1001600012000A0EAD6EA3EC00F00D0EAD6EA3EC06
:1001700000F01200AE500A6E0AC0ADFFA3EC00F012
:10018000B1EC00F08C6A8B908B92410E0A62CBEF3F
:1001900000F0F9EF00F0440E0A62D1EF00F0FDEF3D
:1001A00000F0490E0A62D7EF00F008EF01F04D0EA3
:1001B0000A62DDEF00F025EF01F0520E0A62E3EF74
:1001C00000F02CEF01F0530E0A62E9EF00F079EF36
:1001D00001F0540E0A62EFEF00F07DEF01F0550ED2
:1001E0000A62F5EF00F081EF01F087EC00F05CEFC0
:1001F00000F007C08CFF5CEF00F003C08CFF81B4FF
:1002000004EF01F0B40E0B6281A28B725CEF00F080
:1002100000C08CFF000E0E6EA7EC00F00AC00FF0BD
:1002200073EC00F00D0E0A6218EF01F01DEF01F003
:100230000E2A780E0E620CEF01F0B1EC00F00D0EFC
:100240000F6E73EC00F05CEF00F002C08CFF9EBA02
:10025000BAEF00F025EF01F001C08CFF4E0EAD6E3D
:10026000A3EC00F06F0EAD6EA3EC00F06D0EAD6E62
:10027000A3EC00F03A0EAD6EA3EC00F0200EAD6ED4
:10028000A3EC00F0000E0E6E6BEC00F00FC0ADFFA3
:10029000A3EC00F00D0E0F6254EF01F00A0EAD6EEC
:1002A000A3EC00F057EF01F00E2A44EF01F04D0EE1
:1002B000AD6EA3EC00F0650EAD6EA3EC00F0730E16
:1002C000AD6EA3EC00F0750EAD6EA3EC00F0720EF7
:1002D000AD6E650EAD6EA3EC00F0730EAD6EA3ECCB
:1002E00000F03A0EAD6EA3EC00F0B1EC00F05CEF64
:1002F00000F004C08CFF5CEF00F005C08CFF5CEFE9
:0A03000000F087EC00F05CEF00F065
:020000040030CA
:0100010006F8
:010003001EDE
:010005008179
:010006008178
:00000001FF
