:020000040000FA
:0400000056EF00F0C7
:020004000000FA
:040008006CEF00F0A9
:080018001100230E926E899481
:100020008998E60E936EF19EC00E946E8B908B9223
:10003000956A000E8C6E12003F0E006E060E016E69
:100040005B0E026E4F0E036E660E046E6D0E056E35
:100050003D0E066E070E076E3F0E086ECF0E096E40
:100060000D0E0C6E010EE26E000EE16EC80E186EE3
:10007000196A1200240EAC6E900EAB6E080EB86EAC
:10008000040EB06E100EAF6E1200D08EE00EF26E47
:10009000F1841200910ED56E1200A69EA69C12004D
:1000A0000E0EC06E0E0EC16EC28012001CEC00F06F
:1000B0000DEC00F03AEC00F045EC00F04DEC00F0F7
:1000C0004AEC00F071EC00F050EC00F08B809EBA2E
:1000D00019EF01F066EF00F0F29471EC00F0898402
:1000E00011003C0ED76EB00ED66E12000E50A96EE7
:1000F000A69EA69CA680A8CF0FF012000E50A96E57
:100100000F50A86EA684F29E550EA76EAA0EA76E7B
:10011000A68293EC00F0F28EA69412001FEEE6F099
:1001200017C0E7FF1200A6B293EF00F01200E80E2E
:10013000106E8988102AD8A09AEF00F00000000005
:100140000000899880AAA2EF00F0126A3C0E116E9E
:10015000113EA8EF00F0122A80BAA6EF00F01206B6
:1001600012C017F08EEC00F0182E1200C80E186E98
:1001700019681200146A156A166A000E1364D7EF24
:1001800000F0142A0A0E1460C8EF00F0D2EF00F05D
:10019000146A152A0A0E1560D0EF00F0D2EF00F0B5
:1001A000156A162A134ED7EF00F0BDEF00F0300E9F
:1001B0001426300E1526300E1626120016C0ADFF7E
:1001C00002EC01F015C0ADFF02EC01F014C0ADFF70
:1001D00002EC01F01200C282C2B2ECEF00F0C4CF18
:1001E00013F0BAEC00F0DEEC00F02D0EAD6E02EC78
:1001F00001F0C3CF13F0BAEC00F0DEEC00F010EC2D
:1002000001F01200ACA202EF01F012009EAA06EF6C
:1002100001F0AE500A6E0AC0ADFF02EC01F0120010
:100220000A0EAD6E02EC01F00D0EAD6E02EC01F0A7
:100230001200AE500A6E0AC0ADFF8B9002EC01F0C6
:1002400010EC01F08C6A8B908B92410E0A622BEFBE
:1002500001F059EF01F0440E0A6231EF01F06FEF47
:1002600001F0490E0A6237EF01F07AEF01F04D0E0E
:100270000A623DEF01F097EF01F0520E0A6243EF80
:1002800001F09EEF01F0530E0A6249EF01F002EF18
:1002900002F0540E0A624FEF01F008EF02F0550E23
:1002A0000A6255EF01F00CEF02F097EC00F066EFF8
:1002B00000F007C08CFF680E136EBAEC00F016C099
:1002C000ADFF02EC01F015C0ADFF02EC01F014C06F
:1002D000ADFF02EC01F010EC01F066EF00F003C09E
:1002E0008CFF81B476EF01F0B40E0B6281A28B72A9
:1002F00066EF00F000C08CFF000E0E6E06EC01F001
:100300000AC00FF07EEC00F00D0E0A628AEF01F0D9
:100310008FEF01F00E2A780E0E627EEF01F010ECE6
:1003200001F00D0E0F6E7EEC00F066EF00F002C0E3
:100330008CFF9EBA19EF01F097EF01F001C08CFF1E
:100340004E0EAD6E02EC01F06F0EAD6E02EC01F0E0
:100350006D0EAD6E02EC01F03A0EAD6E02EC01F0E6
:10036000200EAD6E02EC01F0000E0E6E76EC00F089
:100370000FC0ADFF02EC01F00D0E0F62C6EF01F0F1
:100380000A0EAD6E02EC01F0C9EF01F00E2AB6EFD5
:1003900001F04D0EAD6E02EC01F0650EAD6E02EC9B
:1003A00001F0730EAD6E02EC01F0750EAD6E02EC55
:1003B00001F0720EAD6E650EAD6E02EC01F0730EC3
:1003C000AD6E02EC01F03A0EAD6E02EC01F010ECF5
:1003D00001F0E2CF1AF0E1CF1BF0000EE16E010E4A
:1003E000E26EC80E1C6E10EE01F0E6CF13F0BAEC10
:1003F00000F0DEEC00F010EC01F01C2EF3EF01F049
:1004000066EF00F004C08CFFEBEC00F066EF00F04C
:1004100005C08CFF66EF00F097EC00F012C013F0FF
:10042000BAEC00F0DEEC00F0630EAD6E02EC01F011
:100430006D0EAD6E02EC01F010EC01F066EF00F015
:020000040030CA
:0100010006F8
:010003001EDE
:010005008179
:010006008178
:00000001FF
