:020000040000FA
:040000004FEF00F0CE
:020004000000FA
:0400080064EF00F0B1
:080018001100230E926E899481
:100020008998E60E936EF19EC00E946E8B908B9223
:10003000956A000E8C6E12003F0E006E060E016E69
:100040005B0E026E4F0E036E660E046E6D0E056E35
:100050003D0E066E070E076E3F0E086ECF0E096E40
:100060000D0E0C6E1200240EAC6E900EAB6E080ED0
:10007000B86E040EB06E100EAF6E1200D08EE00E91
:10008000F26EF1841200910ED56E1200A69EA69C0F
:1000900012000E0EC06E0E0EC16EC28012001CEC5D
:1000A00000F00DEC00F033EC00F03EEC00F046EC1C
:1000B00000F043EC00F069EC00F049EC00F09EBA6F
:1000C00001EF01F05FEF00F0F29469EC00F0898439
:1000D00011003C0ED76EB00ED66E12000E50A96EF7
:1000E000A69EA69CA680A8CF0FF012000E50A96E67
:1000F0000F50A86EA684F29E550EA76EAA0EA76E8C
:10010000A68286EC00F0F28EA6941200A6B286EFCC
:1001100000F01200E80E106E8988102AD8A08DEF2A
:1001200000F0000000000000899880AA95EF00F020
:10013000126A400E116E113E9BEF00F0122A8C7471
:1001400080BA99EF00F012C08CFF1200146A156A91
:10015000166A000E1364C3EF00F0142A0A0E14602E
:10016000B4EF00F0BEEF00F0146A152A0A0E156015
:10017000BCEF00F0BEEF00F0156A162A134EC3EF75
:1001800000F0A9EF00F0300E1426300E1526300EC8
:100190001626120016C0ADFFEAEC00F015C0ADFF48
:1001A000EAEC00F014C0ADFFEAEC00F0F8EC00F06F
:1001B0001200C282C2B2DAEF00F0C4CF13F0A6EC94
:1001C00000F0CAEC00F0C3CF13F0A6EC00F0CAECCC
:1001D00000F01200ACA2EAEF00F012009EAAEEEFCF
:1001E00000F0AE500A6E0AC0ADFFEAEC00F012005B
:1001F0000A0EAD6EEAEC00F00D0EAD6EEAEC00F00A
:100200001200AE500A6E0AC0ADFFEAEC00F0F8EC46
:1002100000F08C6A8B908B92410E0A6212EF01F013
:1002200040EF01F0440E0A6218EF01F056EF01F0C2
:10023000490E0A621EEF01F061EF01F04D0E0A62F5
:1002400024EF01F07EEF01F0520E0A622AEF01F076
:1002500085EF01F0530E0A6230EF01F0D2EF01F0AA
:10026000540E0A6236EF01F0D8EF01F0550E0A6223
:100270003CEF01F0DCEF01F08AEC00F05FEF00F002
:1002800007C08CFF680E136EA6EC00F016C0ADFF21
:10029000EAEC00F015C0ADFFEAEC00F014C0ADFFD1
:1002A000EAEC00F0F8EC00F05FEF00F003C08CFF28
:1002B00081B45DEF01F0B40E0B6281A28B725FEF2F
:1002C00000F000C08CFF000E0E6EEEEC00F00AC0D5
:1002D0000FF076EC00F00D0E0A6271EF01F076EF90
:1002E00001F00E2A780E0E6265EF01F0F8EC00F0D6
:1002F0000D0E0F6E76EC00F05FEF00F002C08CFF89
:100300009EBA01EF01F07EEF01F001C08CFF4E0EAE
:10031000AD6EEAEC00F06F0EAD6EEAEC00F06D0E23
:10032000AD6EEAEC00F03A0EAD6EEAEC00F0200E95
:10033000AD6EEAEC00F0000E0E6E6EEC00F00FC039
:10034000ADFFEAEC00F00D0E0F62ADEF01F00A0E0A
:10035000AD6EEAEC00F0B0EF01F00E2A9DEF01F077
:100360004D0EAD6EEAEC00F0650EAD6EEAEC00F0FD
:10037000730EAD6EEAEC00F0750EAD6EEAEC00F0B7
:10038000720EAD6E650EAD6EEAEC00F0730EAD6EE2
:10039000EAEC00F03A0EAD6EEAEC00F0F8EC00F09A
:1003A0005FEF00F004C08CFFD9EC00F05FEF00F0CD
:1003B00005C08CFF5FEF00F08AEC00F05FEF00F00B
:020000040030CA
:0100010006F8
:010003001EDE
:010005008179
:010006008178
:00000001FF
