:020000040000FA
:0400000040EF00F0DD
:020004000000FA
:040008003FEF00F0D6
:080018001100210E926EC30ECF
:10002000936EC00E946E8B908B92956A000E8C6EC0
:10003000C2800E0EC16E080EC06E12003F0E006E22
:10004000060E016E5B0E026E4F0E036E660E046EA0
:100050006D0E056E3D0E066E070E076E3F0E086EA6
:10006000CF0E096E12001200240EAC6E900EAB6E15
:10007000080EB86E040EB06E100EAF6E12001100B6
:100080000DEC00F033EC00F034EC00F01EEC00F06E
:10009000410EAD6EACA24AEF00F048EF00F0AE5258
:1000A000445ED8B462EC00F0495ED8B465EC00F070
:1000B0004D5ED8B468EC00F0525ED8B46BEC00F042
:1000C0008C68120003508C6E120000508C6E12006F
:0C00D00002508C6E120001508C6E120069
:020000040030CA
:0100010006F8
:010003001EDE
:010005008179
:010006008178
:00000001FF
